{
  "_format": "hh-sol-artifact-1",
  "contractName": "GiftCard",
  "sourceName": "contracts/GiftCard.sol",
  "abi": [
    {
      "inputs": [
        {
          "internalType": "uint256",
          "name": "",
          "type": "uint256"
        }
      ],
      "name": "cardIDs",
      "outputs": [
        {
          "internalType": "string",
          "name": "",
          "type": "string"
        }
      ],
      "stateMutability": "view",
      "type": "function"
    },
    {
      "inputs": [
        {
          "internalType": "address",
          "name": "merchant",
          "type": "address"
        },
        {
          "internalType": "string",
          "name": "_cardID",
          "type": "string"
        },
        {
          "internalType": "uint256",
          "name": "validThru",
          "type": "uint256"
        },
        {
          "internalType": "bool",
          "name": "rechargable",
          "type": "bool"
        },
        {
          "internalType": "bool",
          "name": "transferable",
          "type": "bool"
        }
      ],
      "name": "createCard",
      "outputs": [],
      "stateMutability": "payable",
      "type": "function"
    },
    {
      "inputs": [
        {
          "internalType": "string",
          "name": "name",
          "type": "string"
        }
      ],
      "name": "createMerchant",
      "outputs": [],
      "stateMutability": "nonpayable",
      "type": "function"
    },
    {
      "inputs": [
        {
          "internalType": "bool",
          "name": "ismerchant",
          "type": "bool"
        }
      ],
      "name": "createUser",
      "outputs": [],
      "stateMutability": "nonpayable",
      "type": "function"
    },
    {
      "inputs": [
        {
          "internalType": "string",
          "name": "_cardID",
          "type": "string"
        }
      ],
      "name": "deleteCard",
      "outputs": [],
      "stateMutability": "nonpayable",
      "type": "function"
    },
    {
      "inputs": [],
      "name": "getMerchants",
      "outputs": [
        {
          "components": [
            {
              "internalType": "address",
              "name": "merchantID",
              "type": "address"
            },
            {
              "internalType": "string",
              "name": "name",
              "type": "string"
            }
          ],
          "internalType": "struct GiftCard.Merchant[]",
          "name": "",
          "type": "tuple[]"
        }
      ],
      "stateMutability": "view",
      "type": "function"
    },
    {
      "inputs": [],
      "name": "getUser",
      "outputs": [
        {
          "internalType": "bool",
          "name": "",
          "type": "bool"
        },
        {
          "internalType": "bool",
          "name": "",
          "type": "bool"
        }
      ],
      "stateMutability": "view",
      "type": "function"
    },
    {
      "inputs": [
        {
          "internalType": "uint256",
          "name": "",
          "type": "uint256"
        }
      ],
      "name": "merchantAddresses",
      "outputs": [
        {
          "internalType": "address",
          "name": "",
          "type": "address"
        }
      ],
      "stateMutability": "view",
      "type": "function"
    },
    {
      "inputs": [
        {
          "internalType": "string",
          "name": "_cardID",
          "type": "string"
        },
        {
          "internalType": "address payable",
          "name": "recipient",
          "type": "address"
        },
        {
          "internalType": "uint256",
          "name": "amount",
          "type": "uint256"
        }
      ],
      "name": "redeemCard",
      "outputs": [],
      "stateMutability": "nonpayable",
      "type": "function"
    },
    {
      "inputs": [
        {
          "internalType": "string",
          "name": "_cardID",
          "type": "string"
        },
        {
          "internalType": "address",
          "name": "beneficiary",
          "type": "address"
        }
      ],
      "name": "transferCard",
      "outputs": [],
      "stateMutability": "nonpayable",
      "type": "function"
    },
    {
      "inputs": [
        {
          "internalType": "string",
          "name": "_cardID",
          "type": "string"
        }
      ],
      "name": "viewCard",
      "outputs": [
        {
          "internalType": "address",
          "name": "merchant",
          "type": "address"
        },
        {
          "internalType": "string",
          "name": "cardId",
          "type": "string"
        },
        {
          "internalType": "uint256",
          "name": "value",
          "type": "uint256"
        },
        {
          "internalType": "address",
          "name": "generatedBy",
          "type": "address"
        },
        {
          "internalType": "bool",
          "name": "transferable",
          "type": "bool"
        },
        {
          "internalType": "address",
          "name": "beneficiary",
          "type": "address"
        }
      ],
      "stateMutability": "view",
      "type": "function"
    },
    {
      "inputs": [],
      "name": "viewCards",
      "outputs": [
        {
          "components": [
            {
              "internalType": "string",
              "name": "cardID",
              "type": "string"
            },
            {
              "internalType": "uint256",
              "name": "value",
              "type": "uint256"
            },
            {
              "internalType": "uint256",
              "name": "issueDate",
              "type": "uint256"
            },
            {
              "internalType": "uint256",
              "name": "validUntil",
              "type": "uint256"
            },
            {
              "internalType": "address",
              "name": "beneficiary",
              "type": "address"
            },
            {
              "internalType": "bool",
              "name": "rechargable",
              "type": "bool"
            },
            {
              "internalType": "address",
              "name": "generatedBy",
              "type": "address"
            },
            {
              "internalType": "bool",
              "name": "transferable",
              "type": "bool"
            },
            {
              "internalType": "address",
              "name": "merchant",
              "type": "address"
            },
            {
              "internalType": "string",
              "name": "merchantName",
              "type": "string"
            }
          ],
          "internalType": "struct GiftCard.Card[]",
          "name": "",
          "type": "tuple[]"
        }
      ],
      "stateMutability": "view",
      "type": "function"
    }
  ],
  "bytecode": "0x608060405234801561001057600080fd5b506130b2806100206000396000f3fe6080604052600436106100a75760003560e01c8063ab8ae5b011610064578063ab8ae5b0146101b3578063c106d6fb146101dc578063ce3c575014610205578063e2d1800f1461022e578063ec588c2114610259578063fe34095c14610296576100a7565b80630a8d7c69146100ac5780632d310060146100ee5780635480a7f41461010a5780637fc92bf914610133578063832880e71461015c57806385e6ed2e14610188575b600080fd5b3480156100b857600080fd5b506100d360048036038101906100ce9190611f59565b6102d3565b6040516100e596959493929190612096565b60405180910390f35b61010860048036038101906101039190612182565b610628565b005b34801561011657600080fd5b50610131600480360381019061012c9190612219565b6109f4565b005b34801561013f57600080fd5b5061015a60048036038101906101559190611f59565b610b10565b005b34801561016857600080fd5b50610171610e69565b60405161017f929190612275565b60405180910390f35b34801561019457600080fd5b5061019d610f68565b6040516101aa91906124b8565b60405180910390f35b3480156101bf57600080fd5b506101da60048036038101906101d591906124da565b611363565b005b3480156101e857600080fd5b5061020360048036038101906101fe9190611f59565b6114d6565b005b34801561021157600080fd5b5061022c60048036038101906102279190612545565b611779565b005b34801561023a57600080fd5b506102436119d6565b60405161025091906126b3565b60405180910390f35b34801561026557600080fd5b50610280600480360381019061027b91906126d5565b611bee565b60405161028d9190612702565b60405180910390f35b3480156102a257600080fd5b506102bd60048036038101906102b891906126d5565b611c9a565b6040516102ca9190612724565b60405180910390f35b6000606060008060008060006001886040516102ef919061277b565b908152602001604051809103902060405180610140016040529081600082018054610319906127c1565b80601f0160208091040260200160405190810160405280929190818152602001828054610345906127c1565b80156103925780601f1061036757610100808354040283529160200191610392565b820191906000526020600020905b81548152906001019060200180831161037557829003601f168201915b505050505081526020016001820154815260200160028201548152602001600382015481526020016004820160009054906101000a900473ffffffffffffffffffffffffffffffffffffffff1673ffffffffffffffffffffffffffffffffffffffff1673ffffffffffffffffffffffffffffffffffffffff1681526020016004820160149054906101000a900460ff161515151581526020016005820160009054906101000a900473ffffffffffffffffffffffffffffffffffffffff1673ffffffffffffffffffffffffffffffffffffffff1673ffffffffffffffffffffffffffffffffffffffff1681526020016005820160149054906101000a900460ff161515151581526020016006820160009054906101000a900473ffffffffffffffffffffffffffffffffffffffff1673ffffffffffffffffffffffffffffffffffffffff1673ffffffffffffffffffffffffffffffffffffffff168152602001600782018054610501906127c1565b80601f016020809104026020016040519081016040528092919081815260200182805461052d906127c1565b801561057a5780601f1061054f5761010080835404028352916020019161057a565b820191906000526020600020905b81548152906001019060200180831161055d57829003601f168201915b50505050508152505090503373ffffffffffffffffffffffffffffffffffffffff16816080015173ffffffffffffffffffffffffffffffffffffffff16146105f7576040517f08c379a00000000000000000000000000000000000000000000000000000000081526004016105ee90612864565b60405180910390fd5b8061010001518882602001518360c001518460e0015185608001519650965096509650965096505091939550919395565b604051806101400160405280858152602001600081526020014281526020018481526020013373ffffffffffffffffffffffffffffffffffffffff16815260200183151581526020013373ffffffffffffffffffffffffffffffffffffffff16815260200182151581526020018673ffffffffffffffffffffffffffffffffffffffff168152602001600260008873ffffffffffffffffffffffffffffffffffffffff1673ffffffffffffffffffffffffffffffffffffffff16815260200190815260200160002060010180546106fe906127c1565b80601f016020809104026020016040519081016040528092919081815260200182805461072a906127c1565b80156107775780601f1061074c57610100808354040283529160200191610777565b820191906000526020600020905b81548152906001019060200180831161075a57829003601f168201915b505050505081525060018560405161078f919061277b565b908152602001604051809103902060008201518160000190816107b29190612a30565b5060208201518160010155604082015181600201556060820151816003015560808201518160040160006101000a81548173ffffffffffffffffffffffffffffffffffffffff021916908373ffffffffffffffffffffffffffffffffffffffff16021790555060a08201518160040160146101000a81548160ff02191690831515021790555060c08201518160050160006101000a81548173ffffffffffffffffffffffffffffffffffffffff021916908373ffffffffffffffffffffffffffffffffffffffff16021790555060e08201518160050160146101000a81548160ff0219169083151502179055506101008201518160060160006101000a81548173ffffffffffffffffffffffffffffffffffffffff021916908373ffffffffffffffffffffffffffffffffffffffff1602179055506101208201518160070190816108fd9190612a30565b509050503373ffffffffffffffffffffffffffffffffffffffff16600185604051610928919061277b565b908152602001604051809103902060040160009054906101000a900473ffffffffffffffffffffffffffffffffffffffff1673ffffffffffffffffffffffffffffffffffffffff161461097a57600080fd5b3460018560405161098b919061277b565b908152602001604051809103902060010181905550346000808282546109b19190612b31565b925050819055506005849080600181540180825580915050600190039060005260206000200160009091909190915090816109ec9190612a30565b505050505050565b3373ffffffffffffffffffffffffffffffffffffffff16600183604051610a1b919061277b565b908152602001604051809103902060040160009054906101000a900473ffffffffffffffffffffffffffffffffffffffff1673ffffffffffffffffffffffffffffffffffffffff1614610a6d57600080fd5b60011515600183604051610a81919061277b565b908152602001604051809103902060050160149054906101000a900460ff16151514610aac57600080fd5b80600183604051610abd919061277b565b908152602001604051809103902060040160006101000a81548173ffffffffffffffffffffffffffffffffffffffff021916908373ffffffffffffffffffffffffffffffffffffffff1602179055505050565b3373ffffffffffffffffffffffffffffffffffffffff16600182604051610b37919061277b565b908152602001604051809103902060040160009054906101000a900473ffffffffffffffffffffffffffffffffffffffff1673ffffffffffffffffffffffffffffffffffffffff1614610b8957600080fd5b6000600182604051610b9b919061277b565b9081526020016040518091039020600101549050600182604051610bbf919061277b565b908152602001604051809103902060008082016000610bde9190611cd9565b6001820160009055600282016000905560038201600090556004820160006101000a81549073ffffffffffffffffffffffffffffffffffffffff02191690556004820160146101000a81549060ff02191690556005820160006101000a81549073ffffffffffffffffffffffffffffffffffffffff02191690556005820160146101000a81549060ff02191690556006820160006101000a81549073ffffffffffffffffffffffffffffffffffffffff0219169055600782016000610ca39190611cd9565b50506000805b600580549050811015610dbe57838051906020012060058281548110610cd257610cd1612b65565b5b90600052602060002001604051610ce99190612c37565b604051809103902003610dab576001915060008190505b600580549050811015610d75576005600182610d1c9190612b31565b81548110610d2d57610d2c612b65565b5b9060005260206000200160058281548110610d4b57610d4a612b65565b5b906000526020600020019081610d619190612c79565b508080610d6d90612d61565b915050610d00565b506005805480610d8857610d87612da9565b5b600190038181906000526020600020016000610da49190611cd9565b9055610dbe565b8080610db690612d61565b915050610ca9565b5080610dff576040517f08c379a0000000000000000000000000000000000000000000000000000000008152600401610df690612e24565b60405180910390fd5b60003390508073ffffffffffffffffffffffffffffffffffffffff166108fc849081150290604051600060405180830381858888f19350505050158015610e4a573d6000803e3d6000fd5b5082600080828254610e5c9190612e44565b9250508190555050505050565b6000803373ffffffffffffffffffffffffffffffffffffffff16600360003373ffffffffffffffffffffffffffffffffffffffff1673ffffffffffffffffffffffffffffffffffffffff16815260200190815260200160002060000160009054906101000a900473ffffffffffffffffffffffffffffffffffffffff1673ffffffffffffffffffffffffffffffffffffffff1603610f5c576001600360003373ffffffffffffffffffffffffffffffffffffffff1673ffffffffffffffffffffffffffffffffffffffff16815260200190815260200160002060000160149054906101000a900460ff1691509150610f64565b600080915091505b9091565b6060600060058054905067ffffffffffffffff811115610f8b57610f8a611e2e565b5b604051908082528060200260200182016040528015610fc457816020015b610fb1611d19565b815260200190600190039081610fa95790505b50905060005b60058054905081101561135b573373ffffffffffffffffffffffffffffffffffffffff1660016005838154811061100457611003612b65565b5b9060005260206000200160405161101b9190612efb565b908152602001604051809103902060040160009054906101000a900473ffffffffffffffffffffffffffffffffffffffff1673ffffffffffffffffffffffffffffffffffffffff16036113485760016005828154811061107e5761107d612b65565b5b906000526020600020016040516110959190612efb565b9081526020016040518091039020604051806101400160405290816000820180546110bf906127c1565b80601f01602080910402602001604051908101604052809291908181526020018280546110eb906127c1565b80156111385780601f1061110d57610100808354040283529160200191611138565b820191906000526020600020905b81548152906001019060200180831161111b57829003601f168201915b505050505081526020016001820154815260200160028201548152602001600382015481526020016004820160009054906101000a900473ffffffffffffffffffffffffffffffffffffffff1673ffffffffffffffffffffffffffffffffffffffff1673ffffffffffffffffffffffffffffffffffffffff1681526020016004820160149054906101000a900460ff161515151581526020016005820160009054906101000a900473ffffffffffffffffffffffffffffffffffffffff1673ffffffffffffffffffffffffffffffffffffffff1673ffffffffffffffffffffffffffffffffffffffff1681526020016005820160149054906101000a900460ff161515151581526020016006820160009054906101000a900473ffffffffffffffffffffffffffffffffffffffff1673ffffffffffffffffffffffffffffffffffffffff1673ffffffffffffffffffffffffffffffffffffffff1681526020016007820180546112a7906127c1565b80601f01602080910402602001604051908101604052809291908181526020018280546112d3906127c1565b80156113205780601f106112f557610100808354040283529160200191611320565b820191906000526020600020905b81548152906001019060200180831161130357829003601f168201915b50505050508152505082828151811061133c5761133b612b65565b5b60200260200101819052505b808061135390612d61565b915050610fca565b508091505090565b3373ffffffffffffffffffffffffffffffffffffffff16600360003373ffffffffffffffffffffffffffffffffffffffff1673ffffffffffffffffffffffffffffffffffffffff16815260200190815260200160002060000160009054906101000a900473ffffffffffffffffffffffffffffffffffffffff1673ffffffffffffffffffffffffffffffffffffffff16036113fd57600080fd5b60405180604001604052803373ffffffffffffffffffffffffffffffffffffffff168152602001821515815250600360003373ffffffffffffffffffffffffffffffffffffffff1673ffffffffffffffffffffffffffffffffffffffff16815260200190815260200160002060008201518160000160006101000a81548173ffffffffffffffffffffffffffffffffffffffff021916908373ffffffffffffffffffffffffffffffffffffffff16021790555060208201518160000160146101000a81548160ff02191690831515021790555090505050565b338073ffffffffffffffffffffffffffffffffffffffff16600260008373ffffffffffffffffffffffffffffffffffffffff1673ffffffffffffffffffffffffffffffffffffffff16815260200190815260200160002060000160009054906101000a900473ffffffffffffffffffffffffffffffffffffffff1673ffffffffffffffffffffffffffffffffffffffff160361157157600080fd5b60405180604001604052803373ffffffffffffffffffffffffffffffffffffffff16815260200183815250600260003373ffffffffffffffffffffffffffffffffffffffff1673ffffffffffffffffffffffffffffffffffffffff16815260200190815260200160002060008201518160000160006101000a81548173ffffffffffffffffffffffffffffffffffffffff021916908373ffffffffffffffffffffffffffffffffffffffff16021790555060208201518160010190816116379190612a30565b5090505060405180604001604052803373ffffffffffffffffffffffffffffffffffffffff16815260200160011515815250600360003373ffffffffffffffffffffffffffffffffffffffff1673ffffffffffffffffffffffffffffffffffffffff16815260200190815260200160002060008201518160000160006101000a81548173ffffffffffffffffffffffffffffffffffffffff021916908373ffffffffffffffffffffffffffffffffffffffff16021790555060208201518160000160146101000a81548160ff0219169083151502179055509050506004339080600181540180825580915050600190039060005260206000200160009091909190916101000a81548173ffffffffffffffffffffffffffffffffffffffff021916908373ffffffffffffffffffffffffffffffffffffffff1602179055505050565b3373ffffffffffffffffffffffffffffffffffffffff166001846040516117a0919061277b565b908152602001604051809103902060040160009054906101000a900473ffffffffffffffffffffffffffffffffffffffff1673ffffffffffffffffffffffffffffffffffffffff1614611828576040517f08c379a000000000000000000000000000000000000000000000000000000000815260040161181f90612f84565b60405180910390fd5b80600184604051611839919061277b565b9081526020016040518091039020600101541161188b576040517f08c379a000000000000000000000000000000000000000000000000000000000815260040161188290612ff0565b60405180910390fd5b8173ffffffffffffffffffffffffffffffffffffffff166001846040516118b2919061277b565b908152602001604051809103902060060160009054906101000a900473ffffffffffffffffffffffffffffffffffffffff1673ffffffffffffffffffffffffffffffffffffffff161461193a576040517f08c379a00000000000000000000000000000000000000000000000000000000081526004016119319061305c565b60405180910390fd5b8173ffffffffffffffffffffffffffffffffffffffff166108fc829081150290604051600060405180830381858888f19350505050158015611980573d6000803e3d6000fd5b5080600184604051611992919061277b565b908152602001604051809103902060010160008282546119b29190612e44565b92505081905550806000808282546119ca9190612e44565b92505081905550505050565b6060600060048054905067ffffffffffffffff8111156119f9576119f8611e2e565b5b604051908082528060200260200182016040528015611a3257816020015b611a1f611db2565b815260200190600190039081611a175790505b50905060005b600480549050811015611be6576002600060048381548110611a5d57611a5c612b65565b5b9060005260206000200160009054906101000a900473ffffffffffffffffffffffffffffffffffffffff1673ffffffffffffffffffffffffffffffffffffffff1673ffffffffffffffffffffffffffffffffffffffff1681526020019081526020016000206040518060400160405290816000820160009054906101000a900473ffffffffffffffffffffffffffffffffffffffff1673ffffffffffffffffffffffffffffffffffffffff1673ffffffffffffffffffffffffffffffffffffffff168152602001600182018054611b33906127c1565b80601f0160208091040260200160405190810160405280929190818152602001828054611b5f906127c1565b8015611bac5780601f10611b8157610100808354040283529160200191611bac565b820191906000526020600020905b815481529060010190602001808311611b8f57829003601f168201915b505050505081525050828281518110611bc857611bc7612b65565b5b60200260200101819052508080611bde90612d61565b915050611a38565b508091505090565b60058181548110611bfe57600080fd5b906000526020600020016000915090508054611c19906127c1565b80601f0160208091040260200160405190810160405280929190818152602001828054611c45906127c1565b8015611c925780601f10611c6757610100808354040283529160200191611c92565b820191906000526020600020905b815481529060010190602001808311611c7557829003601f168201915b505050505081565b60048181548110611caa57600080fd5b906000526020600020016000915054906101000a900473ffffffffffffffffffffffffffffffffffffffff1681565b508054611ce5906127c1565b6000825580601f10611cf75750611d16565b601f016020900490600052602060002090810190611d159190611de2565b5b50565b60405180610140016040528060608152602001600081526020016000815260200160008152602001600073ffffffffffffffffffffffffffffffffffffffff168152602001600015158152602001600073ffffffffffffffffffffffffffffffffffffffff168152602001600015158152602001600073ffffffffffffffffffffffffffffffffffffffff168152602001606081525090565b6040518060400160405280600073ffffffffffffffffffffffffffffffffffffffff168152602001606081525090565b5b80821115611dfb576000816000905550600101611de3565b5090565b6000604051905090565b600080fd5b600080fd5b600080fd5b600080fd5b6000601f19601f8301169050919050565b7f4e487b7100000000000000000000000000000000000000000000000000000000600052604160045260246000fd5b611e6682611e1d565b810181811067ffffffffffffffff82111715611e8557611e84611e2e565b5b80604052505050565b6000611e98611dff565b9050611ea48282611e5d565b919050565b600067ffffffffffffffff821115611ec457611ec3611e2e565b5b611ecd82611e1d565b9050602081019050919050565b82818337600083830152505050565b6000611efc611ef784611ea9565b611e8e565b905082815260208101848484011115611f1857611f17611e18565b5b611f23848285611eda565b509392505050565b600082601f830112611f4057611f3f611e13565b5b8135611f50848260208601611ee9565b91505092915050565b600060208284031215611f6f57611f6e611e09565b5b600082013567ffffffffffffffff811115611f8d57611f8c611e0e565b5b611f9984828501611f2b565b91505092915050565b600073ffffffffffffffffffffffffffffffffffffffff82169050919050565b6000611fcd82611fa2565b9050919050565b611fdd81611fc2565b82525050565b600081519050919050565b600082825260208201905092915050565b60005b8381101561201d578082015181840152602081019050612002565b60008484015250505050565b600061203482611fe3565b61203e8185611fee565b935061204e818560208601611fff565b61205781611e1d565b840191505092915050565b6000819050919050565b61207581612062565b82525050565b60008115159050919050565b6120908161207b565b82525050565b600060c0820190506120ab6000830189611fd4565b81810360208301526120bd8188612029565b90506120cc604083018761206c565b6120d96060830186611fd4565b6120e66080830185612087565b6120f360a0830184611fd4565b979650505050505050565b61210781611fc2565b811461211257600080fd5b50565b600081359050612124816120fe565b92915050565b61213381612062565b811461213e57600080fd5b50565b6000813590506121508161212a565b92915050565b61215f8161207b565b811461216a57600080fd5b50565b60008135905061217c81612156565b92915050565b600080600080600060a0868803121561219e5761219d611e09565b5b60006121ac88828901612115565b955050602086013567ffffffffffffffff8111156121cd576121cc611e0e565b5b6121d988828901611f2b565b94505060406121ea88828901612141565b93505060606121fb8882890161216d565b925050608061220c8882890161216d565b9150509295509295909350565b600080604083850312156122305761222f611e09565b5b600083013567ffffffffffffffff81111561224e5761224d611e0e565b5b61225a85828601611f2b565b925050602061226b85828601612115565b9150509250929050565b600060408201905061228a6000830185612087565b6122976020830184612087565b9392505050565b600081519050919050565b600082825260208201905092915050565b6000819050602082019050919050565b600082825260208201905092915050565b60006122e682611fe3565b6122f081856122ca565b9350612300818560208601611fff565b61230981611e1d565b840191505092915050565b61231d81612062565b82525050565b61232c81611fc2565b82525050565b61233b8161207b565b82525050565b600061014083016000830151848203600086015261235f82826122db565b91505060208301516123746020860182612314565b5060408301516123876040860182612314565b50606083015161239a6060860182612314565b5060808301516123ad6080860182612323565b5060a08301516123c060a0860182612332565b5060c08301516123d360c0860182612323565b5060e08301516123e660e0860182612332565b506101008301516123fb610100860182612323565b5061012083015184820361012086015261241582826122db565b9150508091505092915050565b600061242e8383612341565b905092915050565b6000602082019050919050565b600061244e8261229e565b61245881856122a9565b93508360208202850161246a856122ba565b8060005b858110156124a657848403895281516124878582612422565b945061249283612436565b925060208a0199505060018101905061246e565b50829750879550505050505092915050565b600060208201905081810360008301526124d28184612443565b905092915050565b6000602082840312156124f0576124ef611e09565b5b60006124fe8482850161216d565b91505092915050565b600061251282611fa2565b9050919050565b61252281612507565b811461252d57600080fd5b50565b60008135905061253f81612519565b92915050565b60008060006060848603121561255e5761255d611e09565b5b600084013567ffffffffffffffff81111561257c5761257b611e0e565b5b61258886828701611f2b565b935050602061259986828701612530565b92505060406125aa86828701612141565b9150509250925092565b600081519050919050565b600082825260208201905092915050565b6000819050602082019050919050565b60006040830160008301516125f86000860182612323565b506020830151848203602086015261261082826122db565b9150508091505092915050565b600061262983836125e0565b905092915050565b6000602082019050919050565b6000612649826125b4565b61265381856125bf565b935083602082028501612665856125d0565b8060005b858110156126a15784840389528151612682858261261d565b945061268d83612631565b925060208a01995050600181019050612669565b50829750879550505050505092915050565b600060208201905081810360008301526126cd818461263e565b905092915050565b6000602082840312156126eb576126ea611e09565b5b60006126f984828501612141565b91505092915050565b6000602082019050818103600083015261271c8184612029565b905092915050565b60006020820190506127396000830184611fd4565b92915050565b600081905092915050565b600061275582611fe3565b61275f818561273f565b935061276f818560208601611fff565b80840191505092915050565b6000612787828461274a565b915081905092915050565b7f4e487b7100000000000000000000000000000000000000000000000000000000600052602260045260246000fd5b600060028204905060018216806127d957607f821691505b6020821081036127ec576127eb612792565b5b50919050565b7f43617264732063616e206f6e6c7920626520766965776564206279207468656960008201527f722062656e656669636961726965730000000000000000000000000000000000602082015250565b600061284e602f83611fee565b9150612859826127f2565b604082019050919050565b6000602082019050818103600083015261287d81612841565b9050919050565b60008190508160005260206000209050919050565b60006020601f8301049050919050565b600082821b905092915050565b6000600883026128e67fffffffffffffffffffffffffffffffffffffffffffffffffffffffffffffffff826128a9565b6128f086836128a9565b95508019841693508086168417925050509392505050565b6000819050919050565b600061292d61292861292384612062565b612908565b612062565b9050919050565b6000819050919050565b61294783612912565b61295b61295382612934565b8484546128b6565b825550505050565b600090565b612970612963565b61297b81848461293e565b505050565b5b8181101561299f57612994600082612968565b600181019050612981565b5050565b601f8211156129e4576129b581612884565b6129be84612899565b810160208510156129cd578190505b6129e16129d985612899565b830182612980565b50505b505050565b600082821c905092915050565b6000612a07600019846008026129e9565b1980831691505092915050565b6000612a2083836129f6565b9150826002028217905092915050565b612a3982611fe3565b67ffffffffffffffff811115612a5257612a51611e2e565b5b612a5c82546127c1565b612a678282856129a3565b600060209050601f831160018114612a9a5760008415612a88578287015190505b612a928582612a14565b865550612afa565b601f198416612aa886612884565b60005b82811015612ad057848901518255600182019150602085019450602081019050612aab565b86831015612aed5784890151612ae9601f8916826129f6565b8355505b6001600288020188555050505b505050505050565b7f4e487b7100000000000000000000000000000000000000000000000000000000600052601160045260246000fd5b6000612b3c82612062565b9150612b4783612062565b9250828201905080821115612b5f57612b5e612b02565b5b92915050565b7f4e487b7100000000000000000000000000000000000000000000000000000000600052603260045260246000fd5b600081905092915050565b60008190508160005260206000209050919050565b60008154612bc1816127c1565b612bcb8186612b94565b94506001821660008114612be65760018114612bfb57612c2e565b60ff1983168652811515820286019350612c2e565b612c0485612b9f565b60005b83811015612c2657815481890152600182019150602081019050612c07565b838801955050505b50505092915050565b6000612c438284612bb4565b915081905092915050565b600081549050612c5d816127c1565b9050919050565b60008190508160005260206000209050919050565b818103612c87575050612d5f565b612c9082612c4e565b67ffffffffffffffff811115612ca957612ca8611e2e565b5b612cb382546127c1565b612cbe8282856129a3565b6000601f831160018114612ced5760008415612cdb578287015490505b612ce58582612a14565b865550612d58565b601f198416612cfb87612c64565b9650612d0686612884565b60005b82811015612d2e57848901548255600182019150600185019450602081019050612d09565b86831015612d4b5784890154612d47601f8916826129f6565b8355505b6001600288020188555050505b5050505050505b565b6000612d6c82612062565b91507fffffffffffffffffffffffffffffffffffffffffffffffffffffffffffffffff8203612d9e57612d9d612b02565b5b600182019050919050565b7f4e487b7100000000000000000000000000000000000000000000000000000000600052603160045260246000fd5b7f63617264206e6f7420666f756e64000000000000000000000000000000000000600082015250565b6000612e0e600e83611fee565b9150612e1982612dd8565b602082019050919050565b60006020820190508181036000830152612e3d81612e01565b9050919050565b6000612e4f82612062565b9150612e5a83612062565b9250828203905081811115612e7257612e71612b02565b5b92915050565b60008154612e85816127c1565b612e8f818661273f565b94506001821660008114612eaa5760018114612ebf57612ef2565b60ff1983168652811515820286019350612ef2565b612ec885612884565b60005b83811015612eea57815481890152600182019150602081019050612ecb565b838801955050505b50505092915050565b6000612f078284612e78565b915081905092915050565b7f61646472657373206973206e6f7420617574686f72697a656420746f206d616b60008201527f65207472616e73616374696f6e00000000000000000000000000000000000000602082015250565b6000612f6e602d83611fee565b9150612f7982612f12565b604082019050919050565b60006020820190508181036000830152612f9d81612f61565b9050919050565b7f496e73756666696369656e7420616d6f756e7400000000000000000000000000600082015250565b6000612fda601383611fee565b9150612fe582612fa4565b602082019050919050565b6000602082019050818103600083015261300981612fcd565b9050919050565b7f496e76616c6964206d65726368616e7420616464726573730000000000000000600082015250565b6000613046601883611fee565b915061305182613010565b602082019050919050565b6000602082019050818103600083015261307581613039565b905091905056fea2646970667358221220ad74b5fcd83c431220a8d87b45c457231bf0253013806d0133ea904e8f5c393664736f6c63430008110033",
  "linkReferences": {},
  "deployedLinkReferences": {}
}