{
  "_format": "hh-sol-artifact-1",
  "contractName": "GiftCard",
  "sourceName": "contracts/GiftCard.sol",
  "abi": [
    {
      "inputs": [
        {
          "internalType": "uint256",
          "name": "",
          "type": "uint256"
        }
      ],
      "name": "cardIDs",
      "outputs": [
        {
          "internalType": "string",
          "name": "",
          "type": "string"
        }
      ],
      "stateMutability": "view",
      "type": "function"
    },
    {
      "inputs": [
        {
          "internalType": "address",
          "name": "merchant",
          "type": "address"
        },
        {
          "internalType": "string",
          "name": "_cardID",
          "type": "string"
        },
        {
          "internalType": "uint256",
          "name": "validThru",
          "type": "uint256"
        },
        {
          "internalType": "bool",
          "name": "rechargable",
          "type": "bool"
        },
        {
          "internalType": "bool",
          "name": "transferable",
          "type": "bool"
        }
      ],
      "name": "createCard",
      "outputs": [],
      "stateMutability": "payable",
      "type": "function"
    },
    {
      "inputs": [
        {
          "internalType": "string",
          "name": "name",
          "type": "string"
        }
      ],
      "name": "createMerchant",
      "outputs": [],
      "stateMutability": "nonpayable",
      "type": "function"
    },
    {
      "inputs": [
        {
          "internalType": "bool",
          "name": "ismerchant",
          "type": "bool"
        }
      ],
      "name": "createUser",
      "outputs": [],
      "stateMutability": "nonpayable",
      "type": "function"
    },
    {
      "inputs": [],
      "name": "getMerchants",
      "outputs": [
        {
          "components": [
            {
              "internalType": "address",
              "name": "merchantID",
              "type": "address"
            },
            {
              "internalType": "string",
              "name": "name",
              "type": "string"
            }
          ],
          "internalType": "struct GiftCard.Merchant[]",
          "name": "",
          "type": "tuple[]"
        }
      ],
      "stateMutability": "view",
      "type": "function"
    },
    {
      "inputs": [],
      "name": "getUser",
      "outputs": [
        {
          "internalType": "bool",
          "name": "",
          "type": "bool"
        },
        {
          "internalType": "bool",
          "name": "",
          "type": "bool"
        }
      ],
      "stateMutability": "view",
      "type": "function"
    },
    {
      "inputs": [
        {
          "internalType": "uint256",
          "name": "",
          "type": "uint256"
        }
      ],
      "name": "merchantAddresses",
      "outputs": [
        {
          "internalType": "address",
          "name": "",
          "type": "address"
        }
      ],
      "stateMutability": "view",
      "type": "function"
    },
    {
      "inputs": [
        {
          "internalType": "string",
          "name": "_cardID",
          "type": "string"
        },
        {
          "internalType": "address payable",
          "name": "recipient",
          "type": "address"
        },
        {
          "internalType": "uint256",
          "name": "amount",
          "type": "uint256"
        }
      ],
      "name": "redeemCard",
      "outputs": [],
      "stateMutability": "nonpayable",
      "type": "function"
    },
    {
      "inputs": [
        {
          "internalType": "string",
          "name": "_cardID",
          "type": "string"
        },
        {
          "internalType": "address",
          "name": "beneficiary",
          "type": "address"
        }
      ],
      "name": "transferCard",
      "outputs": [],
      "stateMutability": "nonpayable",
      "type": "function"
    },
    {
      "inputs": [
        {
          "internalType": "string",
          "name": "_cardID",
          "type": "string"
        }
      ],
      "name": "viewCard",
      "outputs": [
        {
          "internalType": "address",
          "name": "merchant",
          "type": "address"
        },
        {
          "internalType": "string",
          "name": "cardId",
          "type": "string"
        },
        {
          "internalType": "uint256",
          "name": "value",
          "type": "uint256"
        },
        {
          "internalType": "address",
          "name": "generatedBy",
          "type": "address"
        },
        {
          "internalType": "bool",
          "name": "transferable",
          "type": "bool"
        },
        {
          "internalType": "address",
          "name": "beneficiary",
          "type": "address"
        }
      ],
      "stateMutability": "view",
      "type": "function"
    },
    {
      "inputs": [],
      "name": "viewCards",
      "outputs": [
        {
          "components": [
            {
              "internalType": "string",
              "name": "cardID",
              "type": "string"
            },
            {
              "internalType": "uint256",
              "name": "value",
              "type": "uint256"
            },
            {
              "internalType": "uint256",
              "name": "issueDate",
              "type": "uint256"
            },
            {
              "internalType": "uint256",
              "name": "validUntil",
              "type": "uint256"
            },
            {
              "internalType": "address",
              "name": "beneficiary",
              "type": "address"
            },
            {
              "internalType": "bool",
              "name": "rechargable",
              "type": "bool"
            },
            {
              "internalType": "address",
              "name": "generatedBy",
              "type": "address"
            },
            {
              "internalType": "bool",
              "name": "transferable",
              "type": "bool"
            },
            {
              "internalType": "address",
              "name": "merchant",
              "type": "address"
            },
            {
              "internalType": "string",
              "name": "merchantName",
              "type": "string"
            }
          ],
          "internalType": "struct GiftCard.Card[]",
          "name": "",
          "type": "tuple[]"
        }
      ],
      "stateMutability": "view",
      "type": "function"
    }
  ],
  "bytecode": "0x608060405234801561001057600080fd5b50612a60806100206000396000f3fe60806040526004361061009c5760003560e01c8063ab8ae5b011610064578063ab8ae5b01461017f578063c106d6fb146101a8578063ce3c5750146101d1578063e2d1800f146101fa578063ec588c2114610225578063fe34095c146102625761009c565b80630a8d7c69146100a15780632d310060146100e35780635480a7f4146100ff578063832880e71461012857806385e6ed2e14610154575b600080fd5b3480156100ad57600080fd5b506100c860048036038101906100c39190611b6f565b61029f565b6040516100da96959493929190611cac565b60405180910390f35b6100fd60048036038101906100f89190611d98565b6105f4565b005b34801561010b57600080fd5b5061012660048036038101906101219190611e2f565b6109c0565b005b34801561013457600080fd5b5061013d610adc565b60405161014b929190611e8b565b60405180910390f35b34801561016057600080fd5b50610169610bdb565b60405161017691906120ce565b60405180910390f35b34801561018b57600080fd5b506101a660048036038101906101a191906120f0565b610fd6565b005b3480156101b457600080fd5b506101cf60048036038101906101ca9190611b6f565b611149565b005b3480156101dd57600080fd5b506101f860048036038101906101f3919061215b565b6113ec565b005b34801561020657600080fd5b5061020f611649565b60405161021c91906122c9565b60405180910390f35b34801561023157600080fd5b5061024c600480360381019061024791906122eb565b611861565b6040516102599190612318565b60405180910390f35b34801561026e57600080fd5b50610289600480360381019061028491906122eb565b61190d565b604051610296919061233a565b60405180910390f35b6000606060008060008060006001886040516102bb9190612391565b9081526020016040518091039020604051806101400160405290816000820180546102e5906123d7565b80601f0160208091040260200160405190810160405280929190818152602001828054610311906123d7565b801561035e5780601f106103335761010080835404028352916020019161035e565b820191906000526020600020905b81548152906001019060200180831161034157829003601f168201915b505050505081526020016001820154815260200160028201548152602001600382015481526020016004820160009054906101000a900473ffffffffffffffffffffffffffffffffffffffff1673ffffffffffffffffffffffffffffffffffffffff1673ffffffffffffffffffffffffffffffffffffffff1681526020016004820160149054906101000a900460ff161515151581526020016005820160009054906101000a900473ffffffffffffffffffffffffffffffffffffffff1673ffffffffffffffffffffffffffffffffffffffff1673ffffffffffffffffffffffffffffffffffffffff1681526020016005820160149054906101000a900460ff161515151581526020016006820160009054906101000a900473ffffffffffffffffffffffffffffffffffffffff1673ffffffffffffffffffffffffffffffffffffffff1673ffffffffffffffffffffffffffffffffffffffff1681526020016007820180546104cd906123d7565b80601f01602080910402602001604051908101604052809291908181526020018280546104f9906123d7565b80156105465780601f1061051b57610100808354040283529160200191610546565b820191906000526020600020905b81548152906001019060200180831161052957829003601f168201915b50505050508152505090503373ffffffffffffffffffffffffffffffffffffffff16816080015173ffffffffffffffffffffffffffffffffffffffff16146105c3576040517f08c379a00000000000000000000000000000000000000000000000000000000081526004016105ba9061247a565b60405180910390fd5b8061010001518882602001518360c001518460e0015185608001519650965096509650965096505091939550919395565b604051806101400160405280858152602001600081526020014281526020018481526020013373ffffffffffffffffffffffffffffffffffffffff16815260200183151581526020013373ffffffffffffffffffffffffffffffffffffffff16815260200182151581526020018673ffffffffffffffffffffffffffffffffffffffff168152602001600260008873ffffffffffffffffffffffffffffffffffffffff1673ffffffffffffffffffffffffffffffffffffffff16815260200190815260200160002060010180546106ca906123d7565b80601f01602080910402602001604051908101604052809291908181526020018280546106f6906123d7565b80156107435780601f1061071857610100808354040283529160200191610743565b820191906000526020600020905b81548152906001019060200180831161072657829003601f168201915b505050505081525060018560405161075b9190612391565b9081526020016040518091039020600082015181600001908161077e9190612646565b5060208201518160010155604082015181600201556060820151816003015560808201518160040160006101000a81548173ffffffffffffffffffffffffffffffffffffffff021916908373ffffffffffffffffffffffffffffffffffffffff16021790555060a08201518160040160146101000a81548160ff02191690831515021790555060c08201518160050160006101000a81548173ffffffffffffffffffffffffffffffffffffffff021916908373ffffffffffffffffffffffffffffffffffffffff16021790555060e08201518160050160146101000a81548160ff0219169083151502179055506101008201518160060160006101000a81548173ffffffffffffffffffffffffffffffffffffffff021916908373ffffffffffffffffffffffffffffffffffffffff1602179055506101208201518160070190816108c99190612646565b509050503373ffffffffffffffffffffffffffffffffffffffff166001856040516108f49190612391565b908152602001604051809103902060040160009054906101000a900473ffffffffffffffffffffffffffffffffffffffff1673ffffffffffffffffffffffffffffffffffffffff161461094657600080fd5b346001856040516109579190612391565b9081526020016040518091039020600101819055503460008082825461097d9190612747565b925050819055506005849080600181540180825580915050600190039060005260206000200160009091909190915090816109b89190612646565b505050505050565b3373ffffffffffffffffffffffffffffffffffffffff166001836040516109e79190612391565b908152602001604051809103902060040160009054906101000a900473ffffffffffffffffffffffffffffffffffffffff1673ffffffffffffffffffffffffffffffffffffffff1614610a3957600080fd5b60011515600183604051610a4d9190612391565b908152602001604051809103902060050160149054906101000a900460ff16151514610a7857600080fd5b80600183604051610a899190612391565b908152602001604051809103902060040160006101000a81548173ffffffffffffffffffffffffffffffffffffffff021916908373ffffffffffffffffffffffffffffffffffffffff1602179055505050565b6000803373ffffffffffffffffffffffffffffffffffffffff16600360003373ffffffffffffffffffffffffffffffffffffffff1673ffffffffffffffffffffffffffffffffffffffff16815260200190815260200160002060000160009054906101000a900473ffffffffffffffffffffffffffffffffffffffff1673ffffffffffffffffffffffffffffffffffffffff1603610bcf576001600360003373ffffffffffffffffffffffffffffffffffffffff1673ffffffffffffffffffffffffffffffffffffffff16815260200190815260200160002060000160149054906101000a900460ff1691509150610bd7565b600080915091505b9091565b6060600060058054905067ffffffffffffffff811115610bfe57610bfd611a44565b5b604051908082528060200260200182016040528015610c3757816020015b610c2461194c565b815260200190600190039081610c1c5790505b50905060005b600580549050811015610fce573373ffffffffffffffffffffffffffffffffffffffff16600160058381548110610c7757610c7661277b565b5b90600052602060002001604051610c8e919061282d565b908152602001604051809103902060040160009054906101000a900473ffffffffffffffffffffffffffffffffffffffff1673ffffffffffffffffffffffffffffffffffffffff1603610fbb57600160058281548110610cf157610cf061277b565b5b90600052602060002001604051610d08919061282d565b908152602001604051809103902060405180610140016040529081600082018054610d32906123d7565b80601f0160208091040260200160405190810160405280929190818152602001828054610d5e906123d7565b8015610dab5780601f10610d8057610100808354040283529160200191610dab565b820191906000526020600020905b815481529060010190602001808311610d8e57829003601f168201915b505050505081526020016001820154815260200160028201548152602001600382015481526020016004820160009054906101000a900473ffffffffffffffffffffffffffffffffffffffff1673ffffffffffffffffffffffffffffffffffffffff1673ffffffffffffffffffffffffffffffffffffffff1681526020016004820160149054906101000a900460ff161515151581526020016005820160009054906101000a900473ffffffffffffffffffffffffffffffffffffffff1673ffffffffffffffffffffffffffffffffffffffff1673ffffffffffffffffffffffffffffffffffffffff1681526020016005820160149054906101000a900460ff161515151581526020016006820160009054906101000a900473ffffffffffffffffffffffffffffffffffffffff1673ffffffffffffffffffffffffffffffffffffffff1673ffffffffffffffffffffffffffffffffffffffff168152602001600782018054610f1a906123d7565b80601f0160208091040260200160405190810160405280929190818152602001828054610f46906123d7565b8015610f935780601f10610f6857610100808354040283529160200191610f93565b820191906000526020600020905b815481529060010190602001808311610f7657829003601f168201915b505050505081525050828281518110610faf57610fae61277b565b5b60200260200101819052505b8080610fc690612844565b915050610c3d565b508091505090565b3373ffffffffffffffffffffffffffffffffffffffff16600360003373ffffffffffffffffffffffffffffffffffffffff1673ffffffffffffffffffffffffffffffffffffffff16815260200190815260200160002060000160009054906101000a900473ffffffffffffffffffffffffffffffffffffffff1673ffffffffffffffffffffffffffffffffffffffff160361107057600080fd5b60405180604001604052803373ffffffffffffffffffffffffffffffffffffffff168152602001821515815250600360003373ffffffffffffffffffffffffffffffffffffffff1673ffffffffffffffffffffffffffffffffffffffff16815260200190815260200160002060008201518160000160006101000a81548173ffffffffffffffffffffffffffffffffffffffff021916908373ffffffffffffffffffffffffffffffffffffffff16021790555060208201518160000160146101000a81548160ff02191690831515021790555090505050565b338073ffffffffffffffffffffffffffffffffffffffff16600260008373ffffffffffffffffffffffffffffffffffffffff1673ffffffffffffffffffffffffffffffffffffffff16815260200190815260200160002060000160009054906101000a900473ffffffffffffffffffffffffffffffffffffffff1673ffffffffffffffffffffffffffffffffffffffff16036111e457600080fd5b60405180604001604052803373ffffffffffffffffffffffffffffffffffffffff16815260200183815250600260003373ffffffffffffffffffffffffffffffffffffffff1673ffffffffffffffffffffffffffffffffffffffff16815260200190815260200160002060008201518160000160006101000a81548173ffffffffffffffffffffffffffffffffffffffff021916908373ffffffffffffffffffffffffffffffffffffffff16021790555060208201518160010190816112aa9190612646565b5090505060405180604001604052803373ffffffffffffffffffffffffffffffffffffffff16815260200160011515815250600360003373ffffffffffffffffffffffffffffffffffffffff1673ffffffffffffffffffffffffffffffffffffffff16815260200190815260200160002060008201518160000160006101000a81548173ffffffffffffffffffffffffffffffffffffffff021916908373ffffffffffffffffffffffffffffffffffffffff16021790555060208201518160000160146101000a81548160ff0219169083151502179055509050506004339080600181540180825580915050600190039060005260206000200160009091909190916101000a81548173ffffffffffffffffffffffffffffffffffffffff021916908373ffffffffffffffffffffffffffffffffffffffff1602179055505050565b3373ffffffffffffffffffffffffffffffffffffffff166001846040516114139190612391565b908152602001604051809103902060040160009054906101000a900473ffffffffffffffffffffffffffffffffffffffff1673ffffffffffffffffffffffffffffffffffffffff161461149b576040517f08c379a0000000000000000000000000000000000000000000000000000000008152600401611492906128fe565b60405180910390fd5b806001846040516114ac9190612391565b908152602001604051809103902060010154116114fe576040517f08c379a00000000000000000000000000000000000000000000000000000000081526004016114f59061296a565b60405180910390fd5b8173ffffffffffffffffffffffffffffffffffffffff166001846040516115259190612391565b908152602001604051809103902060060160009054906101000a900473ffffffffffffffffffffffffffffffffffffffff1673ffffffffffffffffffffffffffffffffffffffff16146115ad576040517f08c379a00000000000000000000000000000000000000000000000000000000081526004016115a4906129d6565b60405180910390fd5b8173ffffffffffffffffffffffffffffffffffffffff166108fc829081150290604051600060405180830381858888f193505050501580156115f3573d6000803e3d6000fd5b50806001846040516116059190612391565b9081526020016040518091039020600101600082825461162591906129f6565b925050819055508060008082825461163d91906129f6565b92505081905550505050565b6060600060048054905067ffffffffffffffff81111561166c5761166b611a44565b5b6040519080825280602002602001820160405280156116a557816020015b6116926119e5565b81526020019060019003908161168a5790505b50905060005b6004805490508110156118595760026000600483815481106116d0576116cf61277b565b5b9060005260206000200160009054906101000a900473ffffffffffffffffffffffffffffffffffffffff1673ffffffffffffffffffffffffffffffffffffffff1673ffffffffffffffffffffffffffffffffffffffff1681526020019081526020016000206040518060400160405290816000820160009054906101000a900473ffffffffffffffffffffffffffffffffffffffff1673ffffffffffffffffffffffffffffffffffffffff1673ffffffffffffffffffffffffffffffffffffffff1681526020016001820180546117a6906123d7565b80601f01602080910402602001604051908101604052809291908181526020018280546117d2906123d7565b801561181f5780601f106117f45761010080835404028352916020019161181f565b820191906000526020600020905b81548152906001019060200180831161180257829003601f168201915b50505050508152505082828151811061183b5761183a61277b565b5b6020026020010181905250808061185190612844565b9150506116ab565b508091505090565b6005818154811061187157600080fd5b90600052602060002001600091509050805461188c906123d7565b80601f01602080910402602001604051908101604052809291908181526020018280546118b8906123d7565b80156119055780601f106118da57610100808354040283529160200191611905565b820191906000526020600020905b8154815290600101906020018083116118e857829003601f168201915b505050505081565b6004818154811061191d57600080fd5b906000526020600020016000915054906101000a900473ffffffffffffffffffffffffffffffffffffffff1681565b60405180610140016040528060608152602001600081526020016000815260200160008152602001600073ffffffffffffffffffffffffffffffffffffffff168152602001600015158152602001600073ffffffffffffffffffffffffffffffffffffffff168152602001600015158152602001600073ffffffffffffffffffffffffffffffffffffffff168152602001606081525090565b6040518060400160405280600073ffffffffffffffffffffffffffffffffffffffff168152602001606081525090565b6000604051905090565b600080fd5b600080fd5b600080fd5b600080fd5b6000601f19601f8301169050919050565b7f4e487b7100000000000000000000000000000000000000000000000000000000600052604160045260246000fd5b611a7c82611a33565b810181811067ffffffffffffffff82111715611a9b57611a9a611a44565b5b80604052505050565b6000611aae611a15565b9050611aba8282611a73565b919050565b600067ffffffffffffffff821115611ada57611ad9611a44565b5b611ae382611a33565b9050602081019050919050565b82818337600083830152505050565b6000611b12611b0d84611abf565b611aa4565b905082815260208101848484011115611b2e57611b2d611a2e565b5b611b39848285611af0565b509392505050565b600082601f830112611b5657611b55611a29565b5b8135611b66848260208601611aff565b91505092915050565b600060208284031215611b8557611b84611a1f565b5b600082013567ffffffffffffffff811115611ba357611ba2611a24565b5b611baf84828501611b41565b91505092915050565b600073ffffffffffffffffffffffffffffffffffffffff82169050919050565b6000611be382611bb8565b9050919050565b611bf381611bd8565b82525050565b600081519050919050565b600082825260208201905092915050565b60005b83811015611c33578082015181840152602081019050611c18565b60008484015250505050565b6000611c4a82611bf9565b611c548185611c04565b9350611c64818560208601611c15565b611c6d81611a33565b840191505092915050565b6000819050919050565b611c8b81611c78565b82525050565b60008115159050919050565b611ca681611c91565b82525050565b600060c082019050611cc16000830189611bea565b8181036020830152611cd38188611c3f565b9050611ce26040830187611c82565b611cef6060830186611bea565b611cfc6080830185611c9d565b611d0960a0830184611bea565b979650505050505050565b611d1d81611bd8565b8114611d2857600080fd5b50565b600081359050611d3a81611d14565b92915050565b611d4981611c78565b8114611d5457600080fd5b50565b600081359050611d6681611d40565b92915050565b611d7581611c91565b8114611d8057600080fd5b50565b600081359050611d9281611d6c565b92915050565b600080600080600060a08688031215611db457611db3611a1f565b5b6000611dc288828901611d2b565b955050602086013567ffffffffffffffff811115611de357611de2611a24565b5b611def88828901611b41565b9450506040611e0088828901611d57565b9350506060611e1188828901611d83565b9250506080611e2288828901611d83565b9150509295509295909350565b60008060408385031215611e4657611e45611a1f565b5b600083013567ffffffffffffffff811115611e6457611e63611a24565b5b611e7085828601611b41565b9250506020611e8185828601611d2b565b9150509250929050565b6000604082019050611ea06000830185611c9d565b611ead6020830184611c9d565b9392505050565b600081519050919050565b600082825260208201905092915050565b6000819050602082019050919050565b600082825260208201905092915050565b6000611efc82611bf9565b611f068185611ee0565b9350611f16818560208601611c15565b611f1f81611a33565b840191505092915050565b611f3381611c78565b82525050565b611f4281611bd8565b82525050565b611f5181611c91565b82525050565b6000610140830160008301518482036000860152611f758282611ef1565b9150506020830151611f8a6020860182611f2a565b506040830151611f9d6040860182611f2a565b506060830151611fb06060860182611f2a565b506080830151611fc36080860182611f39565b5060a0830151611fd660a0860182611f48565b5060c0830151611fe960c0860182611f39565b5060e0830151611ffc60e0860182611f48565b50610100830151612011610100860182611f39565b5061012083015184820361012086015261202b8282611ef1565b9150508091505092915050565b60006120448383611f57565b905092915050565b6000602082019050919050565b600061206482611eb4565b61206e8185611ebf565b93508360208202850161208085611ed0565b8060005b858110156120bc578484038952815161209d8582612038565b94506120a88361204c565b925060208a01995050600181019050612084565b50829750879550505050505092915050565b600060208201905081810360008301526120e88184612059565b905092915050565b60006020828403121561210657612105611a1f565b5b600061211484828501611d83565b91505092915050565b600061212882611bb8565b9050919050565b6121388161211d565b811461214357600080fd5b50565b6000813590506121558161212f565b92915050565b60008060006060848603121561217457612173611a1f565b5b600084013567ffffffffffffffff81111561219257612191611a24565b5b61219e86828701611b41565b93505060206121af86828701612146565b92505060406121c086828701611d57565b9150509250925092565b600081519050919050565b600082825260208201905092915050565b6000819050602082019050919050565b600060408301600083015161220e6000860182611f39565b50602083015184820360208601526122268282611ef1565b9150508091505092915050565b600061223f83836121f6565b905092915050565b6000602082019050919050565b600061225f826121ca565b61226981856121d5565b93508360208202850161227b856121e6565b8060005b858110156122b757848403895281516122988582612233565b94506122a383612247565b925060208a0199505060018101905061227f565b50829750879550505050505092915050565b600060208201905081810360008301526122e38184612254565b905092915050565b60006020828403121561230157612300611a1f565b5b600061230f84828501611d57565b91505092915050565b600060208201905081810360008301526123328184611c3f565b905092915050565b600060208201905061234f6000830184611bea565b92915050565b600081905092915050565b600061236b82611bf9565b6123758185612355565b9350612385818560208601611c15565b80840191505092915050565b600061239d8284612360565b915081905092915050565b7f4e487b7100000000000000000000000000000000000000000000000000000000600052602260045260246000fd5b600060028204905060018216806123ef57607f821691505b602082108103612402576124016123a8565b5b50919050565b7f43617264732063616e206f6e6c7920626520766965776564206279207468656960008201527f722062656e656669636961726965730000000000000000000000000000000000602082015250565b6000612464602f83611c04565b915061246f82612408565b604082019050919050565b6000602082019050818103600083015261249381612457565b9050919050565b60008190508160005260206000209050919050565b60006020601f8301049050919050565b600082821b905092915050565b6000600883026124fc7fffffffffffffffffffffffffffffffffffffffffffffffffffffffffffffffff826124bf565b61250686836124bf565b95508019841693508086168417925050509392505050565b6000819050919050565b600061254361253e61253984611c78565b61251e565b611c78565b9050919050565b6000819050919050565b61255d83612528565b6125716125698261254a565b8484546124cc565b825550505050565b600090565b612586612579565b612591818484612554565b505050565b5b818110156125b5576125aa60008261257e565b600181019050612597565b5050565b601f8211156125fa576125cb8161249a565b6125d4846124af565b810160208510156125e3578190505b6125f76125ef856124af565b830182612596565b50505b505050565b600082821c905092915050565b600061261d600019846008026125ff565b1980831691505092915050565b6000612636838361260c565b9150826002028217905092915050565b61264f82611bf9565b67ffffffffffffffff81111561266857612667611a44565b5b61267282546123d7565b61267d8282856125b9565b600060209050601f8311600181146126b0576000841561269e578287015190505b6126a8858261262a565b865550612710565b601f1984166126be8661249a565b60005b828110156126e6578489015182556001820191506020850194506020810190506126c1565b8683101561270357848901516126ff601f89168261260c565b8355505b6001600288020188555050505b505050505050565b7f4e487b7100000000000000000000000000000000000000000000000000000000600052601160045260246000fd5b600061275282611c78565b915061275d83611c78565b925082820190508082111561277557612774612718565b5b92915050565b7f4e487b7100000000000000000000000000000000000000000000000000000000600052603260045260246000fd5b600081546127b7816123d7565b6127c18186612355565b945060018216600081146127dc57600181146127f157612824565b60ff1983168652811515820286019350612824565b6127fa8561249a565b60005b8381101561281c578154818901526001820191506020810190506127fd565b838801955050505b50505092915050565b600061283982846127aa565b915081905092915050565b600061284f82611c78565b91507fffffffffffffffffffffffffffffffffffffffffffffffffffffffffffffffff820361288157612880612718565b5b600182019050919050565b7f61646472657373206973206e6f7420617574686f72697a656420746f206d616b60008201527f65207472616e73616374696f6e00000000000000000000000000000000000000602082015250565b60006128e8602d83611c04565b91506128f38261288c565b604082019050919050565b60006020820190508181036000830152612917816128db565b9050919050565b7f496e73756666696369656e7420616d6f756e7400000000000000000000000000600082015250565b6000612954601383611c04565b915061295f8261291e565b602082019050919050565b6000602082019050818103600083015261298381612947565b9050919050565b7f496e76616c6964206d65726368616e7420616464726573730000000000000000600082015250565b60006129c0601883611c04565b91506129cb8261298a565b602082019050919050565b600060208201905081810360008301526129ef816129b3565b9050919050565b6000612a0182611c78565b9150612a0c83611c78565b9250828203905081811115612a2457612a23612718565b5b9291505056fea2646970667358221220ecadaf0cf4a9d49db9e68139140061f75465733b5e067db8b7719ef69624f1d064736f6c63430008110033",
  "linkReferences": {},
  "deployedLinkReferences": {}
}